{
  "_format": "hh-sol-artifact-1",
  "contractName": "CliquePot",
  "sourceName": "contracts/CliquePot.sol",
  "abi": [
    {
      "inputs": [
        {
          "internalType": "uint256",
          "name": "_entryAmount",
          "type": "uint256"
        }
      ],
      "stateMutability": "nonpayable",
      "type": "constructor"
    },
    {
      "anonymous": false,
      "inputs": [
        {
          "indexed": false,
          "internalType": "uint256",
          "name": "round",
          "type": "uint256"
        },
        {
          "indexed": true,
          "internalType": "address",
          "name": "winner",
          "type": "address"
        },
        {
          "indexed": false,
          "internalType": "uint256",
          "name": "amount",
          "type": "uint256"
        }
      ],
      "name": "PayoutExecuted",
      "type": "event"
    },
    {
      "inputs": [],
      "name": "MAX_PARTICIPANTS",
      "outputs": [
        {
          "internalType": "uint256",
          "name": "",
          "type": "uint256"
        }
      ],
      "stateMutability": "view",
      "type": "function"
    },
    {
      "inputs": [],
      "name": "currentRound",
      "outputs": [
        {
          "internalType": "uint256",
          "name": "",
          "type": "uint256"
        }
      ],
      "stateMutability": "view",
      "type": "function"
    },
    {
      "inputs": [],
      "name": "entryAmount",
      "outputs": [
        {
          "internalType": "uint256",
          "name": "",
          "type": "uint256"
        }
      ],
      "stateMutability": "view",
      "type": "function"
    },
    {
      "inputs": [
        {
          "internalType": "uint256",
          "name": "index",
          "type": "uint256"
        }
      ],
      "name": "getParticipant",
      "outputs": [
        {
          "internalType": "address",
          "name": "",
          "type": "address"
        }
      ],
      "stateMutability": "view",
      "type": "function"
    },
    {
      "inputs": [],
      "name": "getParticipantCount",
      "outputs": [
        {
          "internalType": "uint256",
          "name": "",
          "type": "uint256"
        }
      ],
      "stateMutability": "view",
      "type": "function"
    },
    {
      "inputs": [],
      "name": "getParticipants",
      "outputs": [
        {
          "internalType": "address[]",
          "name": "",
          "type": "address[]"
        }
      ],
      "stateMutability": "view",
      "type": "function"
    },
    {
      "inputs": [],
      "name": "isRoundActive",
      "outputs": [
        {
          "internalType": "bool",
          "name": "",
          "type": "bool"
        }
      ],
      "stateMutability": "view",
      "type": "function"
    },
    {
      "inputs": [],
      "name": "joinPot",
      "outputs": [],
      "stateMutability": "payable",
      "type": "function"
    },
    {
      "inputs": [
        {
          "internalType": "address",
          "name": "",
          "type": "address"
        }
      ],
      "name": "lastJoinedRound",
      "outputs": [
        {
          "internalType": "uint256",
          "name": "",
          "type": "uint256"
        }
      ],
      "stateMutability": "view",
      "type": "function"
    },
    {
      "inputs": [],
      "name": "owner",
      "outputs": [
        {
          "internalType": "address",
          "name": "",
          "type": "address"
        }
      ],
      "stateMutability": "view",
      "type": "function"
    },
    {
      "inputs": [],
      "name": "triggerPayout",
      "outputs": [],
      "stateMutability": "nonpayable",
      "type": "function"
    },
    {
      "stateMutability": "payable",
      "type": "receive"
    }
  ],
  "bytecode": "0x60c060405234801561001057600080fd5b506040516113b13803806113b183398181016040528101906100329190610115565b60008111610075576040517f08c379a000000000000000000000000000000000000000000000000000000000815260040161006c9061019f565b60405180910390fd5b3373ffffffffffffffffffffffffffffffffffffffff1660808173ffffffffffffffffffffffffffffffffffffffff16815250508060a081815250506001600360006101000a81548160ff0219169083151502179055506001600081905550506101bf565b600080fd5b6000819050919050565b6100f2816100df565b81146100fd57600080fd5b50565b60008151905061010f816100e9565b92915050565b60006020828403121561012b5761012a6100da565b5b600061013984828501610100565b91505092915050565b600082825260208201905092915050565b7f456e74727920616d6f756e74206d757374206265203e20300000000000000000600082015250565b6000610189601883610142565b915061019482610153565b602082019050919050565b600060208201905081810360008301526101b88161017c565b9050919050565b60805160a0516111bf6101f2600039600081816105f501526108f70152600081816102af01526108d301526111bf6000f3fe6080604052600436106100a05760003560e01c80635aa68ac0116100645780635aa68ac0146101ab5780638a19c8bc146101d65780638da5cb5b14610201578063991def3c1461022c578063ad60572914610257578063f3baf07014610282576100e0565b806305a95f04146100e557806311daca81146100fc5780631b9db2ef146101065780632b9bd53a1461014357806345945a4514610180576100e0565b366100e0576040517f08c379a00000000000000000000000000000000000000000000000000000000081526004016100d7906109c6565b60405180910390fd5b600080fd5b3480156100f157600080fd5b506100fa6102ad565b005b61010461055c565b005b34801561011257600080fd5b5061012d60048036038101906101289190610a21565b610783565b60405161013a9190610a8f565b60405180910390f35b34801561014f57600080fd5b5061016a60048036038101906101659190610ad6565b610812565b6040516101779190610b12565b60405180910390f35b34801561018c57600080fd5b5061019561082a565b6040516101a29190610b48565b60405180910390f35b3480156101b757600080fd5b506101c061083d565b6040516101cd9190610c21565b60405180910390f35b3480156101e257600080fd5b506101eb6108cb565b6040516101f89190610b12565b60405180910390f35b34801561020d57600080fd5b506102166108d1565b6040516102239190610a8f565b60405180910390f35b34801561023857600080fd5b506102416108f5565b60405161024e9190610b12565b60405180910390f35b34801561026357600080fd5b5061026c610919565b6040516102799190610b12565b60405180910390f35b34801561028e57600080fd5b50610297610926565b6040516102a49190610b12565b60405180910390f35b7f000000000000000000000000000000000000000000000000000000000000000073ffffffffffffffffffffffffffffffffffffffff163373ffffffffffffffffffffffffffffffffffffffff161461033b576040517f08c379a000000000000000000000000000000000000000000000000000000000815260040161033290610c8f565b60405180910390fd5b600360009054906101000a900460ff1661038a576040517f08c379a000000000000000000000000000000000000000000000000000000000815260040161038190610cfb565b60405180910390fd5b6000600180549050116103d2576040517f08c379a00000000000000000000000000000000000000000000000000000000081526004016103c990610d67565b60405180910390fd5b6000600360006101000a81548160ff02191690831515021790555060006001805490504244306001805490506040516020016104119493929190610df0565b6040516020818303038152906040528051906020012060001c6104349190610e6d565b905060006001828154811061044c5761044b610e9e565b5b9060005260206000200160009054906101000a900473ffffffffffffffffffffffffffffffffffffffff16905060004790508173ffffffffffffffffffffffffffffffffffffffff166108fc829081150290604051600060405180830381858888f193505050501580156104c4573d6000803e3d6000fd5b508173ffffffffffffffffffffffffffffffffffffffff167fbeaa99d72a600712e4656a7da04b2cabe31fb50fbf8f5b5f96513b0a4f495c1a6000548360405161050f929190610ecd565b60405180910390a260016000610525919061092b565b60008081548092919061053790610f25565b91905055506001600360006101000a81548160ff021916908315150217905550505050565b600360009054906101000a900460ff166105ab576040517f08c379a00000000000000000000000000000000000000000000000000000000081526004016105a290610fb9565b60405180910390fd5b600a600180549050106105f3576040517f08c379a00000000000000000000000000000000000000000000000000000000081526004016105ea90611025565b60405180910390fd5b7f00000000000000000000000000000000000000000000000000000000000000003414610655576040517f08c379a000000000000000000000000000000000000000000000000000000000815260040161064c90611091565b60405180910390fd5b600054600260003373ffffffffffffffffffffffffffffffffffffffff1673ffffffffffffffffffffffffffffffffffffffff16815260200190815260200160002054106106d8576040517f08c379a00000000000000000000000000000000000000000000000000000000081526004016106cf906110fd565b60405180910390fd5b600054600260003373ffffffffffffffffffffffffffffffffffffffff1673ffffffffffffffffffffffffffffffffffffffff168152602001908152602001600020819055506001339080600181540180825580915050600190039060005260206000200160009091909190916101000a81548173ffffffffffffffffffffffffffffffffffffffff021916908373ffffffffffffffffffffffffffffffffffffffff160217905550565b600060018054905082106107cc576040517f08c379a00000000000000000000000000000000000000000000000000000000081526004016107c390611169565b60405180910390fd5b600182815481106107e0576107df610e9e565b5b9060005260206000200160009054906101000a900473ffffffffffffffffffffffffffffffffffffffff169050919050565b60026020528060005260406000206000915090505481565b600360009054906101000a900460ff1681565b606060018054806020026020016040519081016040528092919081815260200182805480156108c157602002820191906000526020600020905b8160009054906101000a900473ffffffffffffffffffffffffffffffffffffffff1673ffffffffffffffffffffffffffffffffffffffff1681526020019060010190808311610877575b5050505050905090565b60005481565b7f000000000000000000000000000000000000000000000000000000000000000081565b7f000000000000000000000000000000000000000000000000000000000000000081565b6000600180549050905090565b600a81565b5080546000825590600052602060002090810190610949919061094c565b50565b5b8082111561096557600081600090555060010161094d565b5090565b600082825260208201905092915050565b7f557365206a6f696e506f74282900000000000000000000000000000000000000600082015250565b60006109b0600d83610969565b91506109bb8261097a565b602082019050919050565b600060208201905081810360008301526109df816109a3565b9050919050565b600080fd5b6000819050919050565b6109fe816109eb565b8114610a0957600080fd5b50565b600081359050610a1b816109f5565b92915050565b600060208284031215610a3757610a366109e6565b5b6000610a4584828501610a0c565b91505092915050565b600073ffffffffffffffffffffffffffffffffffffffff82169050919050565b6000610a7982610a4e565b9050919050565b610a8981610a6e565b82525050565b6000602082019050610aa46000830184610a80565b92915050565b610ab381610a6e565b8114610abe57600080fd5b50565b600081359050610ad081610aaa565b92915050565b600060208284031215610aec57610aeb6109e6565b5b6000610afa84828501610ac1565b91505092915050565b610b0c816109eb565b82525050565b6000602082019050610b276000830184610b03565b92915050565b60008115159050919050565b610b4281610b2d565b82525050565b6000602082019050610b5d6000830184610b39565b92915050565b600081519050919050565b600082825260208201905092915050565b6000819050602082019050919050565b610b9881610a6e565b82525050565b6000610baa8383610b8f565b60208301905092915050565b6000602082019050919050565b6000610bce82610b63565b610bd88185610b6e565b9350610be383610b7f565b8060005b83811015610c14578151610bfb8882610b9e565b9750610c0683610bb6565b925050600181019050610be7565b5085935050505092915050565b60006020820190508181036000830152610c3b8184610bc3565b905092915050565b7f4f6e6c79206f776e65722063616e2074726967676572207061796f7574000000600082015250565b6000610c79601d83610969565b9150610c8482610c43565b602082019050919050565b60006020820190508181036000830152610ca881610c6c565b9050919050565b7f5061796f757420616c726561647920696e2070726f6772657373000000000000600082015250565b6000610ce5601a83610969565b9150610cf082610caf565b602082019050919050565b60006020820190508181036000830152610d1481610cd8565b9050919050565b7f4e6f207061727469636970616e74730000000000000000000000000000000000600082015250565b6000610d51600f83610969565b9150610d5c82610d1b565b602082019050919050565b60006020820190508181036000830152610d8081610d44565b9050919050565b6000819050919050565b610da2610d9d826109eb565b610d87565b82525050565b60008160601b9050919050565b6000610dc082610da8565b9050919050565b6000610dd282610db5565b9050919050565b610dea610de582610a6e565b610dc7565b82525050565b6000610dfc8287610d91565b602082019150610e0c8286610d91565b602082019150610e1c8285610dd9565b601482019150610e2c8284610d91565b60208201915081905095945050505050565b7f4e487b7100000000000000000000000000000000000000000000000000000000600052601260045260246000fd5b6000610e78826109eb565b9150610e83836109eb565b925082610e9357610e92610e3e565b5b828206905092915050565b7f4e487b7100000000000000000000000000000000000000000000000000000000600052603260045260246000fd5b6000604082019050610ee26000830185610b03565b610eef6020830184610b03565b9392505050565b7f4e487b7100000000000000000000000000000000000000000000000000000000600052601160045260246000fd5b6000610f30826109eb565b91507fffffffffffffffffffffffffffffffffffffffffffffffffffffffffffffffff8203610f6257610f61610ef6565b5b600182019050919050565b7f526f756e64206e6f742061637469766500000000000000000000000000000000600082015250565b6000610fa3601083610969565b9150610fae82610f6d565b602082019050919050565b60006020820190508181036000830152610fd281610f96565b9050919050565b7f526f756e642069732066756c6c00000000000000000000000000000000000000600082015250565b600061100f600d83610969565b915061101a82610fd9565b602082019050919050565b6000602082019050818103600083015261103e81611002565b9050919050565b7f496e636f72726563742045544820616d6f756e74000000000000000000000000600082015250565b600061107b601483610969565b915061108682611045565b602082019050919050565b600060208201905081810360008301526110aa8161106e565b9050919050565b7f416c7265616479206a6f696e6564207468697320726f756e6400000000000000600082015250565b60006110e7601983610969565b91506110f2826110b1565b602082019050919050565b60006020820190508181036000830152611116816110da565b9050919050565b7f496e646578206f7574206f6620626f756e647300000000000000000000000000600082015250565b6000611153601383610969565b915061115e8261111d565b602082019050919050565b6000602082019050818103600083015261118281611146565b905091905056fea2646970667358221220b64bc606a577c29df9bbe63f77635a426a1e14fbe7fc4c2e470b35f1d663bff164736f6c634300081c0033",
  "linkReferences": {},
  "deployedLinkReferences": {}
}