{
  "_format": "hh-sol-artifact-1",
  "contractName": "CliquePot",
  "sourceName": "contracts/CliquePot.sol",
  "abi": [
    {
      "inputs": [
        {
          "internalType": "uint256",
          "name": "_entryAmount",
          "type": "uint256"
        },
        {
          "internalType": "uint256",
          "name": "_max_participants",
          "type": "uint256"
        }
      ],
      "stateMutability": "nonpayable",
      "type": "constructor"
    },
    {
      "anonymous": false,
      "inputs": [
        {
          "indexed": false,
          "internalType": "uint256",
          "name": "round",
          "type": "uint256"
        },
        {
          "indexed": true,
          "internalType": "address",
          "name": "winner",
          "type": "address"
        },
        {
          "indexed": false,
          "internalType": "uint256",
          "name": "amount",
          "type": "uint256"
        }
      ],
      "name": "PayoutExecuted",
      "type": "event"
    },
    {
      "inputs": [],
      "name": "currentRound",
      "outputs": [
        {
          "internalType": "uint256",
          "name": "",
          "type": "uint256"
        }
      ],
      "stateMutability": "view",
      "type": "function"
    },
    {
      "inputs": [],
      "name": "entryAmount",
      "outputs": [
        {
          "internalType": "uint256",
          "name": "",
          "type": "uint256"
        }
      ],
      "stateMutability": "view",
      "type": "function"
    },
    {
      "inputs": [
        {
          "internalType": "uint256",
          "name": "index",
          "type": "uint256"
        }
      ],
      "name": "getParticipant",
      "outputs": [
        {
          "internalType": "address",
          "name": "",
          "type": "address"
        }
      ],
      "stateMutability": "view",
      "type": "function"
    },
    {
      "inputs": [],
      "name": "getParticipantCount",
      "outputs": [
        {
          "internalType": "uint256",
          "name": "",
          "type": "uint256"
        }
      ],
      "stateMutability": "view",
      "type": "function"
    },
    {
      "inputs": [],
      "name": "getParticipants",
      "outputs": [
        {
          "internalType": "address[]",
          "name": "",
          "type": "address[]"
        }
      ],
      "stateMutability": "view",
      "type": "function"
    },
    {
      "inputs": [],
      "name": "isRoundActive",
      "outputs": [
        {
          "internalType": "bool",
          "name": "",
          "type": "bool"
        }
      ],
      "stateMutability": "view",
      "type": "function"
    },
    {
      "inputs": [],
      "name": "joinPot",
      "outputs": [],
      "stateMutability": "payable",
      "type": "function"
    },
    {
      "inputs": [
        {
          "internalType": "address",
          "name": "",
          "type": "address"
        }
      ],
      "name": "lastJoinedRound",
      "outputs": [
        {
          "internalType": "uint256",
          "name": "",
          "type": "uint256"
        }
      ],
      "stateMutability": "view",
      "type": "function"
    },
    {
      "inputs": [],
      "name": "max_participants",
      "outputs": [
        {
          "internalType": "uint256",
          "name": "",
          "type": "uint256"
        }
      ],
      "stateMutability": "view",
      "type": "function"
    },
    {
      "inputs": [],
      "name": "owner",
      "outputs": [
        {
          "internalType": "address",
          "name": "",
          "type": "address"
        }
      ],
      "stateMutability": "view",
      "type": "function"
    },
    {
      "inputs": [],
      "name": "triggerPayout",
      "outputs": [],
      "stateMutability": "nonpayable",
      "type": "function"
    },
    {
      "stateMutability": "payable",
      "type": "receive"
    }
  ],
  "bytecode": "0x60e060405234801561001057600080fd5b506040516114cb3803806114cb83398181016040528101906100329190610161565b60008211610075576040517f08c379a000000000000000000000000000000000000000000000000000000000815260040161006c906101fe565b60405180910390fd5b600181116100b8576040517f08c379a00000000000000000000000000000000000000000000000000000000081526004016100af9061026a565b60405180910390fd5b3373ffffffffffffffffffffffffffffffffffffffff1660808173ffffffffffffffffffffffffffffffffffffffff16815250508160a081815250508060c081815250506001600360006101000a81548160ff0219169083151502179055506001600081905550505061028a565b600080fd5b6000819050919050565b61013e8161012b565b811461014957600080fd5b50565b60008151905061015b81610135565b92915050565b6000806040838503121561017857610177610126565b5b60006101868582860161014c565b92505060206101978582860161014c565b9150509250929050565b600082825260208201905092915050565b7f456e74727920616d6f756e74206d757374206265203e20300000000000000000600082015250565b60006101e86018836101a1565b91506101f3826101b2565b602082019050919050565b60006020820190508181036000830152610217816101db565b9050919050565b7f52657175697265732032207061727469636970616e7473000000000000000000600082015250565b60006102546017836101a1565b915061025f8261021e565b602082019050919050565b6000602082019050818103600083015261028381610247565b9050919050565b60805160a05160c0516111fd6102ce600039600081816105ad01526108f2015260008181610614015261093a0152600081816102af015261091601526111fd6000f3fe6080604052600436106100a05760003560e01c80635aa68ac0116100645780635aa68ac0146101ab5780638a19c8bc146101d65780638b520b77146102015780638da5cb5b1461022c578063991def3c14610257578063ad60572914610282576100e0565b806305a95f04146100e557806311daca81146100fc5780631b9db2ef146101065780632b9bd53a1461014357806345945a4514610180576100e0565b366100e0576040517f08c379a00000000000000000000000000000000000000000000000000000000081526004016100d790610a04565b60405180910390fd5b600080fd5b3480156100f157600080fd5b506100fa6102ad565b005b61010461055c565b005b34801561011257600080fd5b5061012d60048036038101906101289190610a5f565b6107a2565b60405161013a9190610acd565b60405180910390f35b34801561014f57600080fd5b5061016a60048036038101906101659190610b14565b610831565b6040516101779190610b50565b60405180910390f35b34801561018c57600080fd5b50610195610849565b6040516101a29190610b86565b60405180910390f35b3480156101b757600080fd5b506101c061085c565b6040516101cd9190610c5f565b60405180910390f35b3480156101e257600080fd5b506101eb6108ea565b6040516101f89190610b50565b60405180910390f35b34801561020d57600080fd5b506102166108f0565b6040516102239190610b50565b60405180910390f35b34801561023857600080fd5b50610241610914565b60405161024e9190610acd565b60405180910390f35b34801561026357600080fd5b5061026c610938565b6040516102799190610b50565b60405180910390f35b34801561028e57600080fd5b5061029761095c565b6040516102a49190610b50565b60405180910390f35b7f000000000000000000000000000000000000000000000000000000000000000073ffffffffffffffffffffffffffffffffffffffff163373ffffffffffffffffffffffffffffffffffffffff161461033b576040517f08c379a000000000000000000000000000000000000000000000000000000000815260040161033290610ccd565b60405180910390fd5b600360009054906101000a900460ff1661038a576040517f08c379a000000000000000000000000000000000000000000000000000000000815260040161038190610d39565b60405180910390fd5b6000600180549050116103d2576040517f08c379a00000000000000000000000000000000000000000000000000000000081526004016103c990610da5565b60405180910390fd5b6000600360006101000a81548160ff02191690831515021790555060006001805490504244306001805490506040516020016104119493929190610e2e565b6040516020818303038152906040528051906020012060001c6104349190610eab565b905060006001828154811061044c5761044b610edc565b5b9060005260206000200160009054906101000a900473ffffffffffffffffffffffffffffffffffffffff16905060004790508173ffffffffffffffffffffffffffffffffffffffff166108fc829081150290604051600060405180830381858888f193505050501580156104c4573d6000803e3d6000fd5b508173ffffffffffffffffffffffffffffffffffffffff167fbeaa99d72a600712e4656a7da04b2cabe31fb50fbf8f5b5f96513b0a4f495c1a6000548360405161050f929190610f0b565b60405180910390a2600160006105259190610969565b60008081548092919061053790610f63565b91905055506001600360006101000a81548160ff021916908315150217905550505050565b600360009054906101000a900460ff166105ab576040517f08c379a00000000000000000000000000000000000000000000000000000000081526004016105a290610ff7565b60405180910390fd5b7f000000000000000000000000000000000000000000000000000000000000000060018054905010610612576040517f08c379a000000000000000000000000000000000000000000000000000000000815260040161060990611063565b60405180910390fd5b7f00000000000000000000000000000000000000000000000000000000000000003414610674576040517f08c379a000000000000000000000000000000000000000000000000000000000815260040161066b906110cf565b60405180910390fd5b600054600260003373ffffffffffffffffffffffffffffffffffffffff1673ffffffffffffffffffffffffffffffffffffffff16815260200190815260200160002054106106f7576040517f08c379a00000000000000000000000000000000000000000000000000000000081526004016106ee9061113b565b60405180910390fd5b600054600260003373ffffffffffffffffffffffffffffffffffffffff1673ffffffffffffffffffffffffffffffffffffffff168152602001908152602001600020819055506001339080600181540180825580915050600190039060005260206000200160009091909190916101000a81548173ffffffffffffffffffffffffffffffffffffffff021916908373ffffffffffffffffffffffffffffffffffffffff160217905550565b600060018054905082106107eb576040517f08c379a00000000000000000000000000000000000000000000000000000000081526004016107e2906111a7565b60405180910390fd5b600182815481106107ff576107fe610edc565b5b9060005260206000200160009054906101000a900473ffffffffffffffffffffffffffffffffffffffff169050919050565b60026020528060005260406000206000915090505481565b600360009054906101000a900460ff1681565b606060018054806020026020016040519081016040528092919081815260200182805480156108e057602002820191906000526020600020905b8160009054906101000a900473ffffffffffffffffffffffffffffffffffffffff1673ffffffffffffffffffffffffffffffffffffffff1681526020019060010190808311610896575b5050505050905090565b60005481565b7f000000000000000000000000000000000000000000000000000000000000000081565b7f000000000000000000000000000000000000000000000000000000000000000081565b7f000000000000000000000000000000000000000000000000000000000000000081565b6000600180549050905090565b5080546000825590600052602060002090810190610987919061098a565b50565b5b808211156109a357600081600090555060010161098b565b5090565b600082825260208201905092915050565b7f557365206a6f696e506f74282900000000000000000000000000000000000000600082015250565b60006109ee600d836109a7565b91506109f9826109b8565b602082019050919050565b60006020820190508181036000830152610a1d816109e1565b9050919050565b600080fd5b6000819050919050565b610a3c81610a29565b8114610a4757600080fd5b50565b600081359050610a5981610a33565b92915050565b600060208284031215610a7557610a74610a24565b5b6000610a8384828501610a4a565b91505092915050565b600073ffffffffffffffffffffffffffffffffffffffff82169050919050565b6000610ab782610a8c565b9050919050565b610ac781610aac565b82525050565b6000602082019050610ae26000830184610abe565b92915050565b610af181610aac565b8114610afc57600080fd5b50565b600081359050610b0e81610ae8565b92915050565b600060208284031215610b2a57610b29610a24565b5b6000610b3884828501610aff565b91505092915050565b610b4a81610a29565b82525050565b6000602082019050610b656000830184610b41565b92915050565b60008115159050919050565b610b8081610b6b565b82525050565b6000602082019050610b9b6000830184610b77565b92915050565b600081519050919050565b600082825260208201905092915050565b6000819050602082019050919050565b610bd681610aac565b82525050565b6000610be88383610bcd565b60208301905092915050565b6000602082019050919050565b6000610c0c82610ba1565b610c168185610bac565b9350610c2183610bbd565b8060005b83811015610c52578151610c398882610bdc565b9750610c4483610bf4565b925050600181019050610c25565b5085935050505092915050565b60006020820190508181036000830152610c798184610c01565b905092915050565b7f4f6e6c79206f776e65722063616e2074726967676572207061796f7574000000600082015250565b6000610cb7601d836109a7565b9150610cc282610c81565b602082019050919050565b60006020820190508181036000830152610ce681610caa565b9050919050565b7f5061796f757420616c726561647920696e2070726f6772657373000000000000600082015250565b6000610d23601a836109a7565b9150610d2e82610ced565b602082019050919050565b60006020820190508181036000830152610d5281610d16565b9050919050565b7f4e6f207061727469636970616e74730000000000000000000000000000000000600082015250565b6000610d8f600f836109a7565b9150610d9a82610d59565b602082019050919050565b60006020820190508181036000830152610dbe81610d82565b9050919050565b6000819050919050565b610de0610ddb82610a29565b610dc5565b82525050565b60008160601b9050919050565b6000610dfe82610de6565b9050919050565b6000610e1082610df3565b9050919050565b610e28610e2382610aac565b610e05565b82525050565b6000610e3a8287610dcf565b602082019150610e4a8286610dcf565b602082019150610e5a8285610e17565b601482019150610e6a8284610dcf565b60208201915081905095945050505050565b7f4e487b7100000000000000000000000000000000000000000000000000000000600052601260045260246000fd5b6000610eb682610a29565b9150610ec183610a29565b925082610ed157610ed0610e7c565b5b828206905092915050565b7f4e487b7100000000000000000000000000000000000000000000000000000000600052603260045260246000fd5b6000604082019050610f206000830185610b41565b610f2d6020830184610b41565b9392505050565b7f4e487b7100000000000000000000000000000000000000000000000000000000600052601160045260246000fd5b6000610f6e82610a29565b91507fffffffffffffffffffffffffffffffffffffffffffffffffffffffffffffffff8203610fa057610f9f610f34565b5b600182019050919050565b7f526f756e64206e6f742061637469766500000000000000000000000000000000600082015250565b6000610fe16010836109a7565b9150610fec82610fab565b602082019050919050565b6000602082019050818103600083015261101081610fd4565b9050919050565b7f526f756e642069732066756c6c00000000000000000000000000000000000000600082015250565b600061104d600d836109a7565b915061105882611017565b602082019050919050565b6000602082019050818103600083015261107c81611040565b9050919050565b7f496e636f72726563742045544820616d6f756e74000000000000000000000000600082015250565b60006110b96014836109a7565b91506110c482611083565b602082019050919050565b600060208201905081810360008301526110e8816110ac565b9050919050565b7f416c7265616479206a6f696e6564207468697320726f756e6400000000000000600082015250565b60006111256019836109a7565b9150611130826110ef565b602082019050919050565b6000602082019050818103600083015261115481611118565b9050919050565b7f496e646578206f7574206f6620626f756e647300000000000000000000000000600082015250565b60006111916013836109a7565b915061119c8261115b565b602082019050919050565b600060208201905081810360008301526111c081611184565b905091905056fea2646970667358221220ec0ecc7a0050c34653f6a3c01a837612ba16a3ad0b6da0f032b22dfe6deb431f64736f6c634300081c0033",
  "linkReferences": {},
  "deployedLinkReferences": {}
}